:020000040800F2
:100000008805002005010008EB1A000859180008AF
:10001000E91A0008C7030008391F000800000000A3
:10002000000000000000000000000000EF1A0008BF
:10003000C903000800000000ED1A0008F11A0008CA
:100040001F0100081F0100081F0100081F01000810
:100050001F0100081F0100081F0100081F01000800
:100060001F0100081F0100081F0100081F010008F0
:100070001F0100081F0100081F0100081F010008E0
:100080001F0100081F0100081F0100081F010008D0
:100090001F0100081F0100081F0100081F010008C0
:1000A0001F0100081F0100081F010008551B000860
:1000B0001F0100081F0100081F0100081F010008A0
:1000C0001F0100081F0100081F0100081F01000890
:1000D0001F0100081F0100082D1F00081F01000854
:1000E0001F0100081F0100081F010008DFF810D0E1
:1000F00000F048F90048004775200008AFF3008081
:10010000880500200648804706480047FEE7FEE7CE
:10011000FEE7FEE7FEE7FEE7FEE7FEE7FEE7FEE7B7
:10012000531B0008ED000008202A04DB203A21FAC6
:1001300002F00021704721FA02F3D040C2F1200200
:100140009140084319467047D2B201E000F8012BF4
:10015000491EFBD270470022F6E710B513460A4647
:1001600004461946FFF7F0FF204610BD2DE9FE4F6B
:1001700081EA030404F0004421F0004100944FF0B0
:10018000000B23F0004350EA01045ED052EA03045E
:100190005BD0C3F30A54C1F30A552C44A4F2F334E0
:1001A0000194A0FB0254C1F3130141F48011C3F385
:1001B000130343F4801301FB024400FB034E840A43
:1001C000970A44EA815447EA8357A4FB07680295DB
:1001D0008D0A05FB07854FEA932C04FB0C54270579
:1001E000029D4FEA065847EA1637B5EB08056EEB55
:1001F000070C870E920E47EA811742EA8312A7FB8B
:100200000201B6EB0B0164EB00042B0D43EA0C3347
:100210005E1844EB1C50DA465146E7FB0201C5F379
:1002200013044FEA0B3343EA14534FEA0432019CA0
:1002300043EA0603A4F10C040294009CCDE900B447
:1002400000F052F803B0BDE8F08F00200146F9E756
:1002500070B521F0004303430CD0C1F30A550024CC
:10026000D5EB040564EB0403D617AD1AB34102DBEA
:100270000020014670BD201841EB025170BD0EB543
:1002800040F2334102910021CDE900110A460B46AC
:1002900000F02AF803B000BDC1F30A5210B5C1F353
:1002A000130140F2FF3341F480119A4201DA002039
:1002B00010BD40F233439A42A2F2334203DC524271
:1002C000FFF732FF10BD904010BD10B5141E73F142
:1002D000000408DA401C41F1000192185B411A4306
:1002E00001D120F0010010BD2DE9F04D92469B4652
:1002F00011B1B1FA81F202E0B0FA80F220329046F8
:1003000000F052F804460F4640EA0A0041EA0B01A9
:1003100053465A46084313D0114653EA010019D0F8
:10032000C8F140025046FFF7FFFE05460E46504614
:100330005946424600F038F8084305D0012004E051
:1003400020463946BDE8F08D0020054346EAE076B8
:100350002C4337430A986305E40AA0EB0800002207
:10036000FD0A44EA47540A3002D500200146E9E775
:10037000010510196941DDE9084500196941BDE829
:10038000F04DA2E7064C074D06E0E06840F001039F
:1003900094E8070098471034AC42F6D3FFF7AAFE62
:1003A0005C2100087C210008202A04DB203A00FAA6
:1003B00002F1002070479140C2F1200320FA03F3BC
:1003C000194390407047FEE77047000010B590F861
:1003D00021100024022903D00421816301243DE07F
:1003E00001680A6822F00E020A6001680A6822F0B9
:1003F00001020A601A4A0168914201D1012121E0FB
:10040000174A1432914201D110211BE0144A2832BC
:10041000914201D1891515E0114A3C32914201D136
:1004200089140FE00E4A5032914202D14FF48031CC
:1004300008E00B4A6432914202D14FF4801101E08E
:100440004FF08071064A083A5160012180F821106E
:10045000002180F82010416B01B18847204610BD73
:100460000800024070B5044600F004F90546601C1F
:1004700002D004480078044400F0FCF8401BA0427D
:10048000FAD370BD140000202DE9F84FDFF8B891C1
:10049000002409F1040A0AF1040B23460F270BF18B
:1004A000040EC9E00125A5402A40AA427DD1674E2D
:1004B000D1F804C0ACEB0608B44532D014DCBCF172
:1004C000030F3AD009DCBCF1000F2AD0BCF1010FB8
:1004D0001CD0BCF1020F31D11DE0BCF1110F17D0BF
:1004E000BCF1120F2AD119E0B8F5881F19D006DC2B
:1004F000B8F5803F15D0B8F5801F1FD111E0B8F5D1
:10050000001F0ED0B8F5041F18D10AE0CB6815E023
:10051000CB681B1D12E0CB6808330FE0CB680C33AF
:100520000CE08B682BB1012B4FF0080303D0456121
:1005300004E0042302E0056100E00023FF2A01D863
:10054000064601E000F104064FEA840501D9A5F151
:100550002005D6F8008007FA05FC28EA0C0803FA03
:1005600005F548EA0508C6F800804D68ED0062D53B
:10057000374DAE6946F00106AE61AD6924F0030661
:1005800005F001050095334D06EB050CDCF808502D
:10059000A607360F07FA06F825EA0805DFF8B8803F
:1005A000404503D14FF0000817E044E0DFF8AC808D
:1005B000404502D14FF001080FE0DFF8A48040452C
:1005C00002D14FF0020808E0DFF89880404502D1E0
:1005D0004FF0030801E04FF0040808FA06F848EA73
:1005E0000508CCF808804D68D9F80060ED034D4649
:1005F00001D5164300E096432E604D68DAF800609E
:10060000AD03554601D5164300E096432E604D6874
:10061000DBF80060ED025D4601D5164300E096432D
:100620002E604D68DEF80060AD02754601D51643B8
:1006300000E096432E60641C0D682A46E5407FF476
:1006400031AFBDE8F88F0000000401400000111038
:10065000001002400000014000080140000C014071
:1006600000100140001401400AB101617047090403
:10067000FBE700000148806870470000140000207C
:10068000024881680278114481607047140000209C
:10069000074810B5016841F010010160032000F027
:1006A00075F8002000F006F800F024F8002010BDD6
:1006B0000020024070B50D4D04464FF47A71287841
:1006C000B1FBF0F00A490968B1FBF0F000F0ECFA78
:1006D00048B9102C07D200222146501E00F036F8EF
:1006E00000206C6070BD012070BD0000140000206F
:1006F000200000200C4808B5816941F001018161AA
:10070000816901F001010091C16941F08051C1612D
:10071000C06900F0805000900448416821F0E06119
:1007200041F00071416008BD00100240000001402E
:10073000002809DB00F01F020121914040098000E0
:1007400000F1E020C0F8001170470000F0B40E4B3B
:100750001B680C46C3F30223C3F10705042D00D91F
:100760000425191D072901D2002300E0DB1E012604
:1007700006FA05F1491E214099409E40761E16401A
:100780003143F0BC01F0D9BB0CED00E0064900F0AC
:10079000070208684FF6FF03184040EA0220034AA8
:1007A00010430860704700000CED00E00000FA05FF
:1007B0002DE9F0470F46050061D0434E306800F048
:1007C0000700B84209D2306820F007003843306093
:1007D000306800F00700B84251D128683B4C8107CF
:1007E00012D5400703D5606840F4E0606060287867
:1007F000000703D5606840F4605060606068A968D5
:1008000020F0F000084360602878C00728D06868AE
:10081000012810D02168022810D0890700292EDA7B
:10082000616821F0030101436160FFF723FF804607
:1008300041F288390DE021688903EFE78901EDE78E
:10084000FFF718FFA0EB0801494502D90320BDE8D6
:10085000F0876068696800F00C00B0EB810FEFD1A1
:10086000306800F00700B8420BD9306820F007006C
:1008700038433060306800F00700B84201D00120F2
:10088000E5E72878400705D56068E96820F4E0606E
:10089000084360602878000706D56068296920F45D
:1008A000605040EAC100606000F038F86168084AB2
:1008B000C1F30311515CC84006490860064800684E
:1008C000FFF7F8FE0020C2E70020024000100240BF
:1008D0004421000820000020180000200448054999
:1008E00000684968044AC1F30221515CC84070475E
:1008F000200000200010024054210008044805494F
:1009000000684968044AC1F3C221515CC84070477D
:1009100020000020001002405421000812A185B0E0
:100920000FC98DE80F0014A0144A006804905168A4
:10093000134801F00C03042B10D0082B0ED1C1F387
:100940008343C9031DF803000AD5516804AAC1F303
:100950004041515C0A4A5043B0FBF1F005B070478A
:1009600008494843FAE7000002030405060708099E
:100970000A0B0C0D0E0F10100102000000100240B7
:1009800000127A0000093D002DE9F84F040070D0F4
:100990002078C04DC00749D06868C0F381000128A5
:1009A00007D06868C0F38100022809D16868C003D5
:1009B00006D52868800339D560680028E7D035E07F
:1009C0006068B0F5803F0BD010B1B0F5A02F11D00A
:1009D000286820F480302860286820F4802002E015
:1009E000286840F480302860606890B1FFF742FECC
:1009F00006460AE0286840F480202860F0E700BF3F
:100A0000FFF738FE801B642873D828688003F7D569
:100A10000CE0FFF72FFE064605E000BFFFF72AFEB9
:100A2000801B6428F0D828688003F7D420789A4E79
:100A300080074FF001094FF0000839D5686810F0C1
:100A40000C0F07D06868C0F38100022809D16868DC
:100A5000C00306D42868800714D52069012808D16E
:100A600010E02069B0B1C6F80090FFF703FE07461A
:100A700005E00AE1FFF7FEFDC01B0228C4D8286884
:100A80008007F7D52868616920F0F80040EAC100C6
:100A900028600DE0C6F80080FFF7ECFD074604E093
:100AA000FFF7E8FDC01B022823D828688007F7D489
:100AB000207800072CD57948A169D9B1C0F80090F9
:100AC000FFF7D8FD074604E0FFF7D4FDC01B02285E
:100AD0000FD8686A8007F7D571484FF4FA5100685B
:100AE000B0FBF1F0009000BF0098411E0091FAD2D7
:100AF0000EE080E0C0F80080FFF7BCFD074604E090
:100B0000FFF7B8FDC01B022875D8686A8007F7D4C4
:100B10002078400760D5E8690027C00008D4E8695C
:100B200040F08050E861E869012700F080500090B3
:100B30005C480168C90513D40168834641F480719B
:100B40000160FFF797FD824606E000BFFFF792FDC8
:100B5000A0EB0A0064284ED8DBF80000C005F5D5EC
:100B6000E06801280AD008B1052813D0286A20F0CF
:100B700001002862286A20F0040002E0286A40F0A0
:100B800001002862E06841F2883B98B1FFF772FDEE
:100B900082460BE0286A40F004002862EEE700BFBE
:100BA000FFF768FDA0EB0A0159455AD8286A80076B
:100BB000F6D50CE0FFF75EFD824605E0FFF75AFD33
:100BC000A0EB0A0159454CD8286A8007F6D41FB11A
:100BD000E86920F08050E861E06988B36968C1F392
:100BE0008101022944D00228C6F8608004D0FFF7B2
:100BF00041FD044638E034E0FFF73CFD074604E0E1
:100C0000FFF738FDC01B02282BD828688001F7D4D5
:100C1000206AB0F5803F05D16868A16820F40030F3
:100C200008436860D4E908010843696821F4741135
:100C300008436860C6F86090FFF71CFD044606E0B4
:100C400025E000BFFFF716FD001B022809D8286821
:100C50008001F7D51BE000BFFFF70CFD001B022849
:100C600002D90320BDE8F88F28688001F4D40EE093
:100C70000128F7D06868226A00F48031914204D1DB
:100C8000616A00F47010884201D00120EAE7002078
:100C9000E8E70000001002400000424280044242A7
:100CA000200000200070004010B5401EB0F1807F91
:100CB00001D3012010BD4FF0E02460610F216017C7
:100CC00001F03BF90020A06107202061002010BD49
:100CD0007047704770B590F83C20012A26D0012457
:100CE00080F83C40022280F83D2003685A689D68E5
:100CF00022F070060A6832435A600D4B02689A422D
:100D000008D0B2F1804F05D00A4B9A4202D00A4B6C
:100D10009A4204D1496825F080031943916080F814
:100D20003D40002180F83C10084670BD022070BD97
:100D3000002C0140000400400008004070B505464A
:100D4000007F042822D1254C607870B101281DD184
:100D50000821284600F0C5FBA060296800264E62E5
:100D60006168884213D9401A19E00821284600F02A
:100D7000B8FB6060012060702868016A21F400718E
:100D800001622868016A41F40071016270BD81420C
:100D900001D8E06804E04FF6FF72511A0844E060A1
:100DA000FFF76DFA0E4A0F4BFFF7E0F94FF0FF32F5
:100DB000FFF74EFAFFF770FA206166702868016A43
:100DC00021F4007101622868016A01620648006826
:100DD000C16821F00801C16070BD00000000002062
:100DE0009CC420B07268A13F240000202DE9F0418E
:100DF000054690F83C000C46012836D0012085F8C5
:100E00003C008AB3042A42D02868082A51D0D4E989
:100E10000023E168066A26F480560662C669076AFE
:100E200026F4407646EA03234FF6FF7606EA0131C0
:100E300023F4704319434FF4005627F4005306EA95
:100E400002321A43C16102622868C16921F440611B
:100E5000C1612868C169A26841EA0221C16100201C
:100E600085F83C00BDE8F08101E00220FAE7D4E912
:100E70000012E368286800F059FF2868816921F0B2
:100E80000C01816128688169A26811430FE0D4E9EF
:100E90000012E368286800F075FF2868816921F472
:100EA0004061816128688169A26841EA022181610B
:100EB000D5E7D4E90027267B016A21F4807101621D
:100EC000C169036A21F00301394321F0F0073107BA
:100ED0004FF4007647EA116123F4007306EA022218
:100EE0001A43C16102622868C16921F00C01C16125
:100EF0002868C169A2681143B0E710B5040003D0A7
:100F000094F83D0010B107E0012010BD002084F8E6
:100F10003C00204600F01EF8022084F83D00211D10
:100F2000206800F01DFE012084F8460084F83E0091
:100F300084F83F0084F8400084F8410084F84200BF
:100F400084F8430084F8440084F8450084F83D00A8
:100F5000002010BD00B585B00021009101910291E3
:100F600003910068124988421FD11248816941F4F7
:100F700000618161816901F400610491816941F03E
:100F8000040181618069694600F0040004904FF417
:100F9000806000900848FFF777FA002211461B2076
:100FA000FFF7D4FB1B20FFF7C3FB05B000BD00001B
:100FB000002C0140001002400008014010B504461A
:100FC00051B104290DD0082910D094F8410094F8AB
:100FD0004520012811D10EE094F83E0094F84220FB
:100FE000F7E794F83F0094F84320F2E794F84000C4
:100FF00094F84420EDE7012A01D0012010BD022021
:1010000051B1042911D0082918D084F8410084F87E
:1010100045000C291BD136E084F83E0084F84200DC
:101020002068C26842F0020210E084F83F0084F8B1
:1010300043002068C26842F0040207E084F84000E0
:1010400084F844002068C26842F00802C2600122AD
:10105000206800F0BBFD0E492068884208D0B0F13E
:10106000804F05D00B49884202D00B49884204D1F9
:10107000816801F00701062903D0016841F00101F0
:101080000160002010BD2068C26842F01002DDE758
:10109000002C0140000400400008004070B50446E8
:1010A000006801694FF00005C943890715D4C1687C
:1010B000C943890711D4E91E016101202077206806
:1010C00080698007204602D0FFF738FE04E000F078
:1010D000F9F8204600F0B4F9257720680169C94382
:1010E000490717D4C168C943490713D46FF00401F5
:1010F0000161022020772068806910F4407F20463B
:1011000002D0FFF71BFE04E000F0DCF8204600F000
:1011100097F9257720680169C943090716D4C16882
:10112000C943090712D46FF0080101610420207738
:101130002068C0698007204602D0FFF7FFFD04E069
:1011400000F0C0F8204600F07BF92577206801699F
:10115000C943C90617D4C168C943C90613D46FF07F
:1011600010010161082020772068C06910F4407FD9
:10117000204602D0FFF7E2FD04E000F0A3F820468D
:1011800000F05EF9257720680169C943C90708D1D5
:10119000C168C943C90704D1891E0161204600F016
:1011A0009FF920680169C943090609D4C168C94388
:1011B000090605D46FF0800101612046FFF788FD24
:1011C00020680169C943490609D4C168C943490671
:1011D00005D46FF040010161204600F097F92068C6
:1011E0000169C94389060BD4C168C943890607D47C
:1011F0006FF0200101612046BDE87040FFF769BD36
:1012000070BD000030B585B00021009101910291C0
:1012100003910368264A02212648274CB3F1804FE8
:101220001BD0264DAB4230D1936943F00803936144
:101230009269039102F0080204923022CDE9002164
:101240006946FFF721F9606820F4406040F0E060F3
:1012500040F40060606005B030BD936943F008035E
:1012600093619269039102F0080204924FF4806244
:10127000CDE900216946FFF707F9606820F4407066
:1012800040F0E06040F40070E4E70D4CA342E2D18E
:10129000936943F0080393619269039102F0080295
:1012A0000492C022CDE900216946FFF7EDF8D2E7AC
:1012B00000100240000C014000000140000400400A
:1012C00000080040704770B5044690F83C000D4699
:1012D00001280AD0012084F83C0042B1042A18D029
:1012E000082A2AD00C2A4DD139E0022070BD20688E
:1012F00000F07AFC2068816941F008018161206872
:10130000816921F004018161206881692A691143A2
:1013100011E0206800F090FC2068816941F40061D0
:1013200081612068816921F480618161206881691F
:101330002A6941EA0221816124E0206800F0A8FCCA
:101340002068C16941F00801C1612068C16921F0CC
:101350000401C1612068C1692A69114311E0206854
:1013600000F0C2FC2068C16941F40061C1612068DD
:10137000C16921F48061C1612068C1692A6941EABB
:101380000221C161002084F83C0070BD10B504004A
:1013900003D094F83D0010B107E0012010BD0020FB
:1013A00084F83C00204600F01FF8022084F83D003D
:1013B000211D206800F0D4FB012084F8460084F849
:1013C0003E0084F83F0084F8400084F8410084F82F
:1013D000420084F8430084F8440084F8450084F80F
:1013E0003D00002010BD000008B501681148B1F1B2
:1013F000804F0BD0104A914210D1C16941F00201D7
:10140000C161C06900F00200009008BDC16941F0EF
:101410000101C161C06900F00100F5E7074A91428E
:10142000F3D1C16941F00401C161C06900F0040059
:10143000EAE70000001002400004004000080040FD
:101440007047000010B50446022249B104290ED0AD
:10145000082913D094F84100012816D0012010BDAE
:1014600094F83E000128F9D184F83E200FE094F86A
:101470003F000128F2D184F83F2008E094F84000B2
:101480000128EBD184F8402001E084F841200122BA
:10149000206800F09BFB0F492068884203D1426C12
:1014A00042F4004242642068884208D0B0F1804F84
:1014B00005D00949884202D00849884204D1816890
:1014C00001F00701062903D0016841F00101016024
:1014D000002010BD002C0140000400400008004026
:1014E00070470246002041B1042909D008290AD0DA
:1014F0000C2901D11068006C70471068406B704770
:101500001068806B70471068C06B704770477047F9
:1015100070B5026804461068D168536910F00F0F67
:1015200052D003F0010501F490762E435FD0C2073C
:1015300005D0CA0503D5E26B42F00102E26342071F
:1015400005D5DA0703D0E26B42F00202E2638207BC
:1015500005D5DA0703D0E26B42F00402E26302072A
:1015600007D501F020022A4303D0E26B42F00802C3
:10157000E263E26B002A33D0800604D5880602D5E8
:10158000204600F030FC20684069E16BC0F3801019
:10159000090700D428B3204600F017FC20684169F1
:1015A00049061AD5416921F040014161606BA0B143
:1015B0002D494163606BFEF709FF002810D0606B76
:1015C000416BBDE870400847830610D58B060ED5E9
:1015D0002046BDE8704000F006BC2046FFF797FFAC
:1015E00070BD2046FFF793FF0020E06370BD030647
:1015F0002BD50B0629D594F839002128F6D1A068FF
:10160000B0F5805F01D12069B0B1206A411C216230
:10161000216800784860E08C401E0004000CE084E3
:10162000E4D12068C16821F08001C1602068C168F0
:1016300041F04001C16070BD206A0088C0F308001D
:101640005060206A801C2062E5E74006F3D548061A
:10165000F1D5D168204621F04001D160202184F8E5
:10166000391000F0DBF870BDBB1D000870B5040038
:1016700004D094F83900002510B106E0012070BDB7
:1016800084F83850204600F023F8242084F83900EC
:101690002068C16821F40051C160204600F0EAFBD7
:1016A0002068016921F4904101612068416921F0BD
:1016B0002A0141612068C16841F40051C160E563BD
:1016C000202084F8390084F83A00002070BD000022
:1016D00030B585B00024009401940294039400680E
:1016E000184988422BD11848C16941F40031C161C1
:1016F000C16901F400310491816941F00401816103
:101700008069124D00F00400049004200090022033
:1017100001900320039069462846FEF7B5FE082095
:10172000CDE90004694628460294FEF7ADFE00228A
:1017300011462620FFF70AF82620FEF7F9FF05B02C
:1017400030BD00000044004000100240000801408D
:1017500090F83A30202B22D1F9B1F2B190F838301C
:10176000012B1CD081628285C2850021C1632222A7
:1017700080F83A2080F838100168CA6842F4807214
:10178000CA6001684A6942F001024A610068C168A2
:1017900041F02001C1600020704701207047022005
:1017A000704700001B481B4900220078891E7728DB
:1017B00015D00123572814D0422814D04C2814D017
:1017C000522814D0462814D0532814D0472814D0B7
:1017D000492814D0482815D04A2819D013E00A7097
:1017E00011E00B700FE002200AE0042008E0062060
:1017F00006E0082004E0CA7005E0072000E00920A8
:10180000C87000E0CB70012202490348FFF7A0BF77
:101810000320F5E70200002044010020704700008B
:1018200070B501220A4DD40221462846FEF71CFF5E
:101830000A2000F0A1FB002221462846FEF714FFF3
:1018400004480068C16841F00801C16070BD000033
:101850000008014024000020FEE700002DE9F043CD
:1018600085B0002425480094019402940394816972
:1018700041F010018161816901F0100104918169D9
:1018800041F020018161816901F0200104918169A9
:1018900041F004018161816901F0040104918169D1
:1018A00041F0080181618069DFF8548000F0080090
:1018B0004FF400550490002229464046FEF7D4FE1E
:1018C000DFF84090AF10002239464846FEF7CCFEC4
:1018D0000095022601250396CDE90154694640464C
:1018E000FEF7D2FD00970396CDE9015469464846BC
:1018F000FEF7CAFD05B0BDE8F0830000001002400D
:10190000001001400008014010B586B000241948BD
:101910000594049400940194029415490394016081
:101920004721C0E901144FF6FF71C0E90314446177
:101930008461FFF7E2FA08B172B6FEE7049404A9E5
:101940000C480594FFF7C6F908B172B6FEE701200E
:10195000CDE9004002940822694606480394FFF747
:1019600045FA002801D072B6FEE706B010BD0000AF
:10197000002C01402400002010B58AB000240794F8
:101980001C2168460894FEF7E6FB16484FF080419C
:1019900001604FF43471C0E901144FF47A71C0E969
:1019A00003148461FFF7F2FC08B172B6FEE70794F6
:1019B00007A90C480894FFF78DF908B172B6FEE745
:1019C0006020CDE900040294082269460548049489
:1019D000FFF779FC08B172B6FEE70248FFF712FC88
:1019E0000AB010BD6C00002010B58AB00024079426
:1019F0001C2168460894FEF7AEFB1A48184901609E
:101A00000821C0E901146421C0E903148461FFF7CF
:101A1000BDFC08B172B6FEE7079407A91148089407
:101A2000FFF758F908B172B6FEE76020CDE900046F
:101A30000294002269460B480494FFF744FC08B165
:101A400072B6FEE7042269460648FFF73CFC08B17F
:101A500072B6FEE70348FFF7D5FB0AB010BD0000E1
:101A600000040040B400002010B58AB000240794A0
:101A70001C2168460894FEF76EFB1A48184901605D
:101A80000821C0E901146421C0E903148461FFF74F
:101A90007DFC08B172B6FEE7079407A911480894C7
:101AA000FFF718F908B172B6FEE76020CDE900042F
:101AB0000294002269460B480494FFF704FC08B125
:101AC00072B6FEE7042269460648FFF7FCFB08B140
:101AD00072B6FEE70348FFF795FB0AB010BD0000A1
:101AE00000080040FC000020FEE7FEE7704770475A
:101AF000FEF7C6BD30B58FB028216846FEF72BFB38
:101B000014210AA8FEF727FB01210804CDE90010E3
:101B10000024029402250491CDE907504FF4E0100F
:101B200009906846FEF730FF08B172B6FEE70F2055
:101B3000CDE90A054FF48060CDE90C4002210AA8E6
:101B40000E94FEF735FE002801D072B6FEE70FB006
:101B500030BD70470148FFF7A1BA00002400002003
:101B6000F0B50268164B174C174D4FF0804798425E
:101B700005D0B84203D0A04201D0A84203D122F040
:101B800070064A683243984205D0B84203D0A0425A
:101B900001D0A84203D122F44074CA6822434C69A0
:101BA00022F08002224302608A68C2620A6882626E
:101BB000984201D10969016301214161F0BD000032
:101BC000002C0140000400400008004010B501F066
:101BD0001F030121046A99408C430462016A9A4000
:101BE0001143016210BD000030B5026A22F001020B
:101BF0000262026A4368846924F073050C682C430E
:101C000022F002058A682A430A4DA8420BD122F02D
:101C10000805CA6823F440732A434D6922F0040280
:101C20001D438B692B4343608461496841630262B1
:101C300030BD0000002C014030B5026A22F01002D5
:101C40000262026A436884690D6824F4E64444EA47
:101C500005248D6822F0200242EA05120B4DA842AD
:101C60000ED1CD6822F0800242EA05124D6923F4BC
:101C7000406343EA85038D6922F0400243EA85030D
:101C80004360846149688163026230BD002C014079
:101C900030B5026A22F480720262036A4268C46943
:101CA00023F4007324F073050C682C438D6843EA19
:101CB00005230C4DA8420ED1CD6823F4006343EAFE
:101CC00005234D6922F4405242EA05128D6923F43E
:101CD000806342EA05124260C4614968C1630362DD
:101CE00030BD0000002C014030B5026A22F4805261
:101CF0000262046A4268C3690D6823F4E64343EA5A
:101D000005238D6824F4005444EA0534064DA842A6
:101D100004D14D6922F4804242EA85124260C361D7
:101D200049680164046230BD002C014070B5046A4A
:101D300024F0010404628469056A0F4EB04208D0A1
:101D4000B0F1804F05D00D4EB04202D00C4EB042E3
:101D500003D124F00304144301E044F001041A0702
:101D600024F0F00444EA126225F00A0301F00A01AB
:101D700019438261016270BD002C014000040040E3
:101D80000008004030B5046A24F01004046284693D
:101D9000056A24F4407444EA022222F470444FF6A7
:101DA000FF7202EA03322243A02425F0A00304EAD2
:101DB000011119438261016230BD10B5406A0021F2
:101DC000C185C184FFF7A3FB10BD0168CA6822F476
:101DD0009072CA6001684A6922F001024A612021BA
:101DE00080F83A10704710B590F83A10222901D0C7
:101DF000022010BD82684FF480539A4201D10169DC
:101E000021B1816A9A421BD04AB10AE00268816A14
:101E10005268C2F308020A80816A891C08E00269DC
:101E200072B10268526802F07F020A70816A491C2E
:101E30008162C18D491E0904090CC18503D016E0D9
:101E400002685268F1E70168CA6822F02002CA609D
:101E50000168CA6822F48072CA6001684A6922F087
:101E600001024A61202180F83A10FFF79BFC002014
:101E700010BD000070B5044600680169E26821F4F5
:101E80004051114301612169A06808436169084319
:101E90002168CA6841F20C639A430243CA60206811
:101EA0004169A26921F44071114341611E492068D2
:101EB000884202D1FEF722FD01E0FEF70FFD00EBA4
:101EC000C00101EB0012606864218000B2FBF0F3F6
:101ED000B3FBF1F36FF018067343B2FBF0F5B2FBFE
:101EE000F0F605EB8305322303EB0515B5FBF1F5A1
:101EF000B6FBF1F605F0F00505EB0615B2FBF0F6C2
:101F0000B2FBF0F0B0FBF1F06FF01802504306EBBB
:101F1000800003EB0010B0FBF1F0216800F00F002F
:101F20002844886070BD0000003801400148FFF778
:101F3000EFBA000044010020FEE70907090E00285F
:101F400004DB00F1E02080F80014704700F00F007F
:101F500000F1E02080F8141D704702E008C8121F4D
:101F600008C1002AFAD170477047002001E001C182
:101F7000121F002AFBD17047044900220B685A62E5
:101F800009684A6A8242FCD370470000240000209E
:101F90002DE9F04100224FF400513348FEF764FB75
:101FA000FFF73EFC0F20FEF75DFA304C3049002071
:101FB00025695A2301F148021E2D4BD3E6782D25C1
:101FC00028240A2E0ED2DFE806F048371F3E160DF1
:101FD0000F25052E0C6863630968886311688B639D
:101FE00011684863BDE8F0810B68986309684D6328
:101FF00011684D630BE00B689D63096848631168C5
:10200000486310688563EDE70C68A3631DE0116801
:102010008863E7E70D68A86309684C631168486343
:1020200010688363DEE70D68A86309684B63116875
:10203000486310688463D5E70D68AB63096848633B
:1020400011684C63E3E70D68AC6309684863116885
:102050004B63DCE7E478022CD6D00B689863096800
:10206000486311684863D2E7001001400000002077
:10207000B4000020FEF70CFBFFF73CFDFFF7EEFB82
:10208000FFF7B2FCFFF7F0FC2A4829490024016061
:102090004FF41651C0E901140C21C460C0E9044199
:1020A0008461C461FFF7E2FA08B172B6FEE7FFF798
:1020B0002BFCFFF761FC08211F48FEF77FFF1D483E
:1020C00000219038FFF7BEF91A4804219038FFF735
:1020D000B9F9184800214838FFF7B4F91548042128
:1020E0004838FFF7AFF9012214491248FFF730FBD7
:1020F000124E104DB61E903DDFF8449005F1480792
:102100004FF40058307820B10128FBD1FFF740FF91
:10211000F8E7012241464846FEF7A6FA286884639C
:10212000286844633868446338688463EAE70000D9
:102130000044004044010020240000200200002050
:102140000010014000000000000000000102030434
:102150000607080900000000010203047C210008B2
:1021600000000020240000005A1F0008A0210008E1
:1021700024000020640500006A1F00080000000021
:1021800000000000000000000000000064000000EB
:102190000100000010000000000000000024F40016
:04000005080000ED02
:00000001FF
